:020000040800F2
:100000009820002065770008491A0008006E000853
:10001000C11A0008391B0008B11B000800000000CD
:1000200000000000000000000000000061770008F0
:100030006177000800000000617700082D6E00085D
:100040006177000861770008617700086177000830
:100050006177000861770008617700086177000820
:100060009528000861770008BD280008617700081E
:100070006177000861770008617700086177000800
:1000800061770008617700086177000861770008F0
:1000900061770008617700086177000861770008E0
:1000A000617700081169000861770008617700082E
:1000B00061770008617700086177000861770008C0
:1000C00061770008617700086177000861770008B0
:1000D000617700086177000879720008ED74000804
:1000E0006177000861770008617700086177000890
:1000F0006177000861770008617700086177000880
:10010000617700086177000861770008617700086F
:1001100061770008617700083569000859690008AF
:10012000617700086177000861770008617700084F
:10013000617700086177000861770008617700083F
:10014000617700086177000861770008617700082F
:10015000617700086177000861770008617700081F
:10016000617700086177000861770008617700080F
:1001700061770008617700086177000861770008FF
:080180006177000861770008B7
:100190004FF01C0141431CBFB1F10101FBE7704767
:1001A000034941431CBFB1F10101FBE77047000067
:1001B000606D0000AFF30080AFF30080AFF300800C
:1001C000F8B5504B1B7803B9F8BD4F4B98474F4BD0
:1001D000044698474E4B4F491A680968A21A002AEC
:1001E000B8BF52428A4205464B4A08DA11684B486A
:1001F000691A00680029B8BF49428142E4DB1C60EB
:10020000474B15609847002844D0464F464E384625
:100210002146B0477B68002B61D0022B384643490A
:100220000CBF434B434B98473E4C29462046B047B2
:100230007B68002B4DD0022B20463C490CBF3C4B29
:100240003C4B98473C4B1C68002503340AE0022BCA
:1002500003BF30461146394B394B013598470134BD
:10026000082D0ED022782F4E7B6811463046002B89
:10027000EDD13068036801359B6898470134082D3B
:10028000F0D17B682748DBB9006803680A219B68C6
:100290009847F8BD2B4F244E38462146B0477B681F
:1002A000002B28D0022B384620490CBF204B214B75
:1002B0009847244C29462046B0477B68ABB120467E
:1002C0000A21022B02D01E4B9847F8BD1B4B9847C2
:1002D000F8BD206815490368DB689847B2E73868BD
:1002E00012490368DB6898479EE7206803680A2183
:1002F0009B689847F8BD38680C490368DB689847E5
:10030000D7E700BF34000020890E0008810E0008E6
:10031000640600203800002068060020300000201D
:10032000E51E00087C110020F97800089090000874
:10033000ED790008A97900084C000020F57A000842
:10034000C17A0008A4130020F8B5434B9847434BEB
:1003500006469847424B1E60424B1860424B05468A
:100360009847002844D0414F414C38463146A04779
:100370007B68002B58D0022B38463E490CBF3E4BC1
:100380003E4B9847394E29463046A0477B68002BA4
:1003900056D0022B304637490CBF374B374B984766
:1003A000374B1C68002503340AE0022B03BF30469C
:1003B0001146344B344B013598470134082D0ED08B
:1003C00022782A4E7B6811463046002BEDD13068EA
:1003D000036801359B6898470134082DF0D17B688C
:1003E0002248D3B9006803680A219B689847F8BD82
:1003F000264F1F4C38463146A0477B68D3B1022BAD
:1004000038461C490CBF1C4B1C4B98471F4E2946B5
:100410003046A0477B68CBB130460A21022B0CBF87
:10042000184B194B9847F8BD386812490368DB68C8
:100430009847A7E738680F490368DB689847E5E7FE
:1004400030680C490368DB689847A9E7306803689F
:100450000A219B689847F8BD890E0008810E0008A4
:100460006406002068060020E51E00087C110020BC
:10047000F978000890900008ED790008A979000843
:100480004C000020F57A0008C17A0008A41300206F
:10049000024B1860024B1860704700BF3800002004
:1004A00030000020014B1870704700BF340000205E
:1004B00030B40378A3F13002D4B2092C20D804461A
:1004C0000120DFED2F7A07EE102AF8EEE76A14F824
:1004D000013FF8EEC77AB2EE047A46EE877AA3F1CE
:1004E0003002D5B2092DFDEEE77AECD92E2B27D0BC
:1004F00001B10C6017EE903A03FB00F030BC70477E
:100500002B2B0AD02D2B13D010F8013FA3F1300272
:10051000D4B2092CD3D92B2BF4D14378A3F13002D8
:10052000441CD5B20120092DCBD9DFED157ADDE7CA
:100530004378A3F13002441CD5B24FF0FF30F2E70C
:100540006378303BDAB20134092A11D807EE103A49
:10055000F8EEE76A14F8013FF8EEC77AB2EE047AD3
:1005600046EE877A303BDAB2092AFDEEE77AEDD91A
:1005700017EE902A02EB82035B0007EE903AB7E792
:100580000000000030B44118884217D00378A3F16E
:100590003004092C07D901302B2B04D02D2BF3D19B
:1005A0004FF0FF3400E00124884207D00378302B5D
:1005B00007D101308842F9D1002000E0104630BC5C
:1005C0007047A3F13002D5B2092D20D88842F3D06C
:1005D000DFED247A01E0814237D007EE102AF8EEF1
:1005E000E76A10F8013FF8EEC77AB2EE047A46EEF9
:1005F000877AA3F13002D5B2092DFDEEE77AEAD968
:100600002E2B07D017EE902A02FB04F0D7E7DFED80
:10061000157AF5E74378303BDAB20130092A12D96E
:1006200018E007EE103AF8EEE76A10F8013FF8EE2E
:10063000C77AB2EE047A46EE877A303BDAB2092AFC
:10064000FDEEE77A06D88142EBD117EE901A01FB56
:1006500004F0B4E717EE901A01EB81035B0007EE9C
:10066000903ACFE7000000002DE9F84F2DED028B06
:1006700006460F463378A3F13002092A15D92B2BF1
:1006800070D02D2B69D016F8013F002BF2D107B1A5
:100690003E6007EE108AF8EEC77A27EE888A18EED9
:1006A000100ABDEC028BBDE8F88F4FF0010801E0A5
:1006B00016F8013F302BFBD0A3F13002D1B209294B
:1006C0009FED2B8A10D807EE102A16F8013FF8EE9E
:1006D000C77AB2EE047A48EE077AA3F13002D1B2BB
:1006E0000929B0EE678AEED92E2BD0D17378A3F109
:1006F00030095FFA89F20136092AC8D8DFF880B0DC
:100700004FF0000A1B4B18EE100A9847DFF874C030
:10071000044648460D46E04752465B46DFF868C04F
:10072000E04702460B4620462946134CA047DFF817
:100730005CC0124CE04759460022114B08EE100AEB
:100740005046A04716F8019FA9F130095FFA89F3D6
:10075000092B82468B46D5D999E773784FF0FF383D
:100760000136A7E74FF0010873784644A2E700BFBF
:100770000000000075810008B97E00081D82000895
:10078000000024405181000871840008A1870008FE
:100790002DE9F0472DED028B034600EB01084345A0
:1007A0001BD01878A0F13001092909D901332B2871
:1007B00006D02D28F3D14FF00040BFEE008A02E0B2
:1007C0000020B7EE008A434507D01A78302A09D1B5
:1007D00001334345F9D1002000E01046BDEC028B07
:1007E000BDE8F087A2F13001CCB2092C1ED84345F8
:1007F000F4D0DFED298A01E0984512D007EE101AF7
:1008000013F8012FF8EEC77AB2EE047A48EE877A31
:10081000A2F13001C8B20928F0EE678AECD92E2A7D
:1008200007D028EE888A18EE100AD7E7DFED1A8A7B
:10083000F5E703F10109C145F3D0184D002499F8FB
:1008400000A0AAF1300A5FFA8AF3092B18EE900A89
:1008500009F10109E5D8124B9847124B064650465C
:100860000F469847DFF84CC022462B46E047024629
:100870000B46304639460C4EB0470C4B984729463C
:10088000002208EE900A054B2046094CA047C145BE
:1008900004460D46D3D1C4E7000000000000244008
:1008A0007581000851810008B97E0008A187000801
:1008B0001D820008718400082DE9F00FDFF8F8B000
:1008C000324C334FDFF8F490DFF8F480DFF8F4C0F7
:1008D000C4F800900026CBF80060DFF8ECB0676049
:1008E000CBF80060DFF8E4B0C4F80C80CBF800600F
:1008F000DFF8DCB0C4F810C0002301208BF8000042
:10090000A3606361A361E361DFF8C8B0214CCBF859
:1009100000602660204C214D2660214C2149224A4E
:1009200020709FED227ADFED227ADFF8ACA0DFF8AD
:10093000ACB0204C8BF80000F2EE046AC5ED006A02
:100940006F6085ED027AC5ED037AC5F810A06B6182
:10095000AB61EB612070C1ED006A4F6081ED027AFE
:10096000C1ED037AC1F810A04B618B61CB61C2F875
:10097000009057609360C2F80C80C2F810C05361B9
:100980009361D361BDE8F00F704700BFAC06002053
:10099000CDCCCC3D6C060020CC0600208C0600207F
:1009A000D0060020D4060020F40600209A99993E33
:1009B00000007A45D10600207C060020CDCC4C3EBC
:1009C0000020194600009644840600207806002086
:1009D000880600207006002000683F478906002036
:1009E000F8B5B14B1C78B14B06465A6A002C40F062
:1009F0000981AF4BAF481D68AF491A600078531B9F
:100A00004FF47A7505FB03F30B60B0B9AB4B1C7860
:100A10004FF080435A6A002C40F07881A84BA948D7
:100A20001D68A9491A600078531B4FF47A7505FBBD
:100A300003F30B60002874D1F8BDDFF8C4E2A34BC8
:100A4000DEF800500868281A07EE900AD3ED055A20
:100A5000B8EEE76A93ED037A76EE257AF4EEC77A7C
:100A6000F1EE10FA40F3AC81D3ED006ADFED987A35
:100A700046EE267AD3ED016A93ED065A47EE267AC2
:100A800036EE455AD3ED026A45EE267AD3ED046A76
:100A9000F4EEE67AF1EE10FA8C482EDCF1EE666A9E
:100AA000F4EEE67AF1EE10FA27D4C0ED077AF0EE14
:100AB000676A83ED057A8748874F0069DFF844C28B
:100AC000FDEEE66A10F0800016EE905A83ED066A9D
:100AD000CCED006AC7ED006A1BD1002D19DD38602E
:100AE00005467E480068824200F09E81002C00F09E
:100AF0009C8128467A4B984788E7F0EEC77AF0EE5B
:100B0000E55AF4EEE57AF1EE10FAC0ED076AD2D5B7
:100B1000CFE77048006910F40060E2D1002DE0DA00
:100B2000DDE7704F704B3D680868281A07EE900AA1
:100B3000D3ED055AB8EEE76A93ED037A76EE257A9F
:100B4000F4EEC77AF1EE10FA40F33081D3ED006A8B
:100B5000DFED5F7A46EE267AD3ED016A93ED065A11
:100B600047EE267A36EE455AD3ED026A45EE267AEE
:100B7000D3ED046AF4EEE67AF1EE10FA5A482DDC71
:100B8000F1EE666AF4EEE67AF1EE10FA26D4C0EDE4
:100B9000077AF0EE676A83ED057A5448544E05698A
:100BA000DFF864E1FDEEE66A15F4007516EE900AD2
:100BB00083ED066ACEED006AC6ED006A1AD1002800
:100BC00018DD356028464B4D2D68AA4200F016818D
:100BD000002C00F01481484B9847F8BDF0EEC77A1E
:100BE000F0EEE55AF4EEE57AF1EE10FAC0ED076AA0
:100BF000D3D5D0E73D4D2D6915F48075E3D100289C
:100C0000E1DADEE735493D4B0968891A07EE901AAB
:100C1000D3ED055AF8EEE76A93ED037A76EEA57AFE
:100C2000F4EEC77AF1EE10FA40F3DE8093ED006A3D
:100C3000DFED277A46EE867A93ED016A93ED065A48
:100C400047EE067A36EEC55A93ED026A45EE067A0D
:100C500093ED046AF4EEC67AF1EE10FA274915DC3A
:100C6000B1EE466AF4EEC67AF1EE10FA0ED4C1ED9A
:100C7000077A002E40F0F58083ED057AFDEEE77AE5
:100C8000C3ED066A1E4BC3ED007AB2E681ED076A3A
:100C9000F0EEC77AF0EEE55AF4EEE57AF1EE10FAEE
:100CA000F0EE467AE8D4E9E788060020000C004020
:100CB00084060020890600207C060020D006002043
:100CC000CC060020D106002070060020AC060020D3
:100CD00000000000001002401807002080060020DD
:100CE000ED2500086C060020F4060020000C0240F0
:100CF0002007002074060020292600088C0600200A
:100D000078060020140700201C0700205649574B86
:100D10000968891A07EE901AD3ED055AF8EEE76ACA
:100D200093ED037A76EEA57AF4EEC77AF1EE10FA37
:100D300050DD93ED006ADFED4E7A46EE867A93ED54
:100D4000016A93ED065A47EE067A36EEC55A93EDE0
:100D5000026A45EE067A93ED046AF4EEC67AF1EE85
:100D600010FA424914DCB1EE466AF4EEC67AF1EEAE
:100D700010FA0DD4C1ED077A002E6FD183ED057AFC
:100D8000FDEEE77AC3ED066A3A4BC3ED007A45E61D
:100D900081ED076AF0EEC77AF0EEE55AF4EEE57AF7
:100DA000F1EE10FAF0EE467AE8D4E9E7B1EE477AD0
:100DB000F4EEC77AF1EE10FA58BFB0EE677AC5E6E6
:100DC000B1EE477AF4EEC77AF1EE10FA58BFB0EE02
:100DD000677A49E6B1EE477AF4EEC77AF1EE10FA97
:100DE00058BFB0EE677AA4E7B1EE477AF4EEC77A5F
:100DF000F1EE10FA58BFB0EE677A17E74CB93C68CD
:100E00000A68A21A002AB8BF5242B2F57A7FBFF62A
:100E1000E2AE16490022002030605A619A61DA6120
:100E20004A618A61CA61D6E654B9DEF800000A68F0
:100E3000821A002AB8BF5242B2F57A7FBFF659AE85
:100E400000220D495A6100259A61DA6128460B4B50
:100E50003D604A618A61CA619847D7E5B0EE676A2A
:100E600098E7B0EE676A13E774060020D406002006
:100E7000000000006C0600208C060020ED25000814
:100E80004FF08043586A7047014B586A704700BF63
:100E9000000C00400449054A00234B618B61CB6183
:100EA00053619361D3617047AC060020F4060020C3
:100EB0000449054A00234B618B61CB615361936107
:100EC000D36170478C060020D40600200649074AEB
:100ED00000234B618B61CB6153619361D361044B00
:100EE0001870044B18707047AC060020F406002000
:100EF00089060020D106002030B4B0B1124B13494E
:100F00005C6A134B134A1C604FF080440023656AEF
:100F10004B618B61CB6153619361D3610E4B0124B3
:100F20001C700E4B1C700E4B1D600E490E4A0F4C70
:100F300000234B618B61CB6153619361D3610C4B97
:100F40002070187030BC7047000C0040AC060020C8
:100F500080060020F406002089060020D10600202B
:100F6000740600208C060020D4060020880600208D
:100F7000D006002007EE900AF7EE006AF4EEE67A5B
:100F8000F1EE10FA0DDD9FED107AF0EE667A0F4B60
:100F900083ED047A0E4B83ED047A0E4BC3ED007A99
:100FA0007047F5EEC07AF1EE10FA04D59FED0A7A9B
:100FB000F0EE477AEBE79FED047A27EE877ABDEEF5
:100FC000C77AB8EEC77AE2E700683F478C06002090
:100FD000D40600203C0000200000000020490B68DF
:100FE000DB070BD41F4B00221A605A609A60DA604C
:100FF0001A615A619A61DA6101230B601A490B6820
:10100000D8070BD4194B00221A605A609A60DA6034
:101010001A615A619A61DA6101230B6014490B6805
:10102000DA070BD4134B00221A605A609A60DA6018
:101030001A615A619A61DA6101230B600E490B68EB
:10104000DB070BD40D4B00221A605A609A60DA60FD
:101050001A615A619A61DA6101230B60704700BF1F
:1010600024070020AC06002028070020F4060020FA
:101070002C0700208C06002030070020D40600201A
:101080002DE9F04F012083B0394C3A4DDFF804B11F
:10109000DFF80491384F394E0146A0470220012164
:1010A000A04701200146A04701200146A04768460D
:1010B000334B012498474FF002084FF40043284671
:1010C000694600934FF0080A8DF804808DF80740B8
:1010D000C84758466946CDF800A0C8472846694623
:1010E0000094C84769462846CDF80080C84728467E
:1010F0000F212246B847584603212246B8472846C2
:1011000000214246B847424628462146B847204675
:1011100021461C4B1B4D984750462146A8470022AC
:1011200013460321184D4FF08040A8474FF08040F0
:101130004FF0FF31154B98470022134603213046EC
:10114000A84730464FF0FF31104DA8472146104BBD
:101150000F4D4FF08040984730462146A8474FF04A
:101160008042002353622046736203B0BDE8F08FD3
:10117000B97D000800000240897D0008000C004095
:10118000757D0008D17D0008097E0008E97D000812
:10119000ED7D000800040240D17C00084FF0804241
:1011A00000235362C2F8243C704700BF08B53D4B92
:1011B0003D4C1A6822F0405242F080521A605A6840
:1011C00022F480425A609A6822F0405242F08052E3
:1011D0009A60DA6822F04052DA601A6822F04042DF
:1011E00042F080421A605A6822F400425A609A68BB
:1011F00022F0404242F080429A60DA6822F0404297
:10120000DA601A6822F0406242F080621A605A681E
:1012100022F400525A609A6822F0406242F08062E2
:101220009A60DA6822F04062DA601A6822F040724E
:1012300042F080721A605A6822F480525A609A68AA
:1012400022F0407242F080729A60DA6822F04072B6
:10125000DA60144B5A6912F4804F4FF4804214BF85
:101260005A831A830F4B5A6912F4004F4FF400420D
:1012700014BF5A831A836420A0470A4B5A6912F498
:10128000005F4FF4005214BF5A831A83054B5A690A
:1012900012F4805F4FF4805214BF5A831A83642083
:1012A000A047D6E7000C0240110000202DE9F04FC6
:1012B000C368D0F800B0D0F804A0D0F80890074C6C
:1012C000074D87B000260193036902934369039396
:1012D0008369C06904930590E9E000BF8411002090
:1012E0006D790008022BDFF8B88200F06D839F4F04
:1012F0009F4898F80310B8479D4898F80210B847DF
:101300009B4898F80110B847994898F80010B847DA
:1013100063689748002B00F0F8810A21022B0CBF6C
:10132000944B924B984763689148002B00F0F781EB
:10133000022B0CBF904B914B914998476368002B4F
:1013400000F0F681022BDFF85C8200F04F83874FBC
:10135000874898F80310B847854898F80210B847AE
:10136000834898F80110B847814898F80010B847AA
:1013700063687F48002B00F0E4810A21022B0CBF38
:101380007C4B7A4B984763687948002B00F0E381E7
:10139000022B0CBF784B794B7A4998476368002B36
:1013A00000F0E281022BDFF8008200F0E9826F4F4B
:1013B0006F4898F80310B8476D4898F80210B8477E
:1013C0006B4898F80110B847694898F80010B8477A
:1013D00063686748002B00F0D0810A21022B0CBF04
:1013E000644B624B984763686148002B00F0CF81E3
:1013F000022B0CBF604B614B634998476368002B1D
:1014000000F0CE81022BDFF8A48100F0CB82574F91
:10141000574898F80310B847554898F80210B8474D
:10142000534898F80110B847514898F80010B84749
:1014300063684F48002B00F0BC810A21022B0CBFCF
:101440004C4B4A4B984763684948002B00F0BB81DE
:10145000022B0CBF484B494B4C4998476368002B03
:1014600000F0BA81022BDFF8488100F077823F4F0D
:101470003F4898F80310B8473D4898F80210B8471D
:101480003B4898F80110B847394898F80010B84719
:1014900063683748002B00F0A8810A21022B0CBF9B
:1014A000344B324B013698470A2E00F0A78163680F
:1014B0002F48002B00F04C82022B35490CBF2E4BDD
:1014C0002E4B984763682A48002B00F03B82022B82
:1014D00030490CBF284B294B9847254F5946384671
:1014E000A8476368002B00F027820A21022B3846A8
:1014F0000CBF204B1D4B984763681D48002B00F024
:101500001582022B24490CBF1B4B1C4B9847184FCC
:1015100051463846A8476368002B00F001820A2133
:10152000022B38460CBF134B104B9847636810488A
:10153000002B00F0EF81022B18490CBF0E4B0F4B14
:1015400098470B4F49463846A8476368002B00F080
:10155000DB810A21022B38460CBF064B034B984710
:1015600063680348002B00F0C98123E0C17A0008BA
:1015700084110020F57A0008ED790008A9790008A7
:101580007C910008849100088C91000894910008D7
:10159000C4900008F4900008FC9000080491000832
:1015A00038ED00E028ED00E02CED00E030ED00E04B
:1015B0003CED00E0022B92490CBF924B924B9847B6
:1015C000924F01993846A8476368002B00F090813C
:1015D0000A21022B38460CBF8D4B8E4B984763680F
:1015E0008A48002B00F07E81022B8B490CBF854B73
:1015F000854B9847854F02993846A8476368002B6A
:1016000000F06A810A21022B38460CBF804B814BC7
:10161000984763687D48002B00F05881022B7F4972
:101620000CBF784B784B9847784F03993846A847BA
:101630006368002B00F04481022B384678490CBFC8
:10164000704B714B984763687048002B00F0228103
:101650000A21022B0CBF6E4B6E4B984763686B4898
:10166000002B00F01181022B6E490CBF654B664BBD
:101670009847664F04993846A8476368002B00F0E6
:10168000FD80022B384668490CBF5E4B5E4B984785
:1016900063685E48002B00F0E1800A21022B0CBF3A
:1016A0005B4B5C4B984763685848002B00F0E08028
:1016B000022B5E490CBF534B534B9847534F059930
:1016C0003846A8476368002B00F0EA800A21022B05
:1016D00038460CBF4E4B4F4B984763684B48002B26
:1016E00000F0E880022B52490CBF464B464B98470E
:1016F0006368002B7FF4F6AD4E4B44481968A84749
:1017000063684248002B7FF408AE006803680A2132
:101710009B68984763683D48002B7FF409AE0068DA
:1017200045490368DB6898476368002B7FF40AAE7D
:10173000424B36481968A84763683448002B7FF449
:101740001CAE006803680A219B68984763682F48AD
:10175000002B7FF41DAE006839490368DB689847A9
:101760006368002B7FF41EAE364B28481968A847E3
:1017700063682648002B7FF430AE006803680A21B6
:101780009B68984763682148002B7FF431AE00685E
:101790002D490368DB6898476368002B7FF432AEFD
:1017A0002A4B1A481968A84763681848002B7FF429
:1017B00044AE006803680A219B6898476368134831
:1017C000002B7FF445AE006821490368DB68984729
:1017D0006368002B7FF446AE1E4B0C481968A8477F
:1017E00063680A48002B7FF458AE006803680A213A
:1017F0009B68013698470A2E7FF459AE164B9847DE
:101800000C910008ED790008A979000884110020E6
:10181000F57A0008C17A0008149100081C910008AC
:10182000289100084C910008589100086C9100081C
:101830007491000838ED00E07C91000828ED00E08C
:10184000849100082CED00E08C91000830ED00E060
:10185000949100083CED00E0AD11000800680368B9
:101860000A219B68984763686948002B7FF420AF82
:10187000006868490368DB6898471FE7386866496D
:101880000368DB68984703E7006864490368DB681E
:101890009847EEE6006803680A219B689847DDE6F2
:1018A000386803680A219B68984763685848002B8A
:1018B0007FF418AF00685A490368DB68984717E758
:1018C000386858490368DB689847BCE600685649A1
:1018D0000368DB689847A7E6386803680A219B68B5
:1018E000984796E6006851490368DB68984781E6A7
:1018F000386803680A219B68984770E600684C497D
:101900000368DB6898475BE6386803680A219B68D0
:10191000984725E6006847490368DB68984710E662
:10192000386803680A219B689847FFE500684249C8
:101930000368DB689847EAE5386803680A219B6812
:101940009847D9E500683D490368DB689847C4E5D6
:1019500000683B490368DB689847B3E5394F98F85E
:1019600003102B48B84798F802102948B84798F850
:1019700001102748B847264898F80010B84787E56F
:10198000304F98F803102248B84798F802102048C2
:10199000B84798F801101E48B8471D4898F800103D
:1019A000B84715E5274F98F803101948B84798F835
:1019B00002101748B84798F801101548B84714485E
:1019C00098F80010B84733E51E4F98F803101048F8
:1019D000B84798F802100E48B84798F801100C481C
:1019E000B8470B4898F80010B84791E4154F98F89D
:1019F00003100748B84798F802100548B84798F808
:101A000001100348B847024898F80010B847AFE4FF
:101A1000841100206C910008589100084C91000836
:101A200074910008289100081C9100081491000886
:101A30000C91000804910008FC900008F490000844
:101A4000C4900008F57A000838B5164D002411E05E
:101A5000022B0CBF144B154B154998476B68114866
:101A6000ABB10A21022B0CBF124B134B0134984728
:101A70000A2C14D06B680B48002BE9D100680C4984
:101A80000368DB6898476B680648002BE9D100685B
:101A900003680A219B68013498470A2CEAD1074B56
:101AA000984700BF84110020ED790008A97900084B
:101AB000B0900008F57A0008C17A0008AD1100085E
:101AC00038B5164D002411E0022B0CBF144B154BFA
:101AD000154998476B681148ABB10A21022B0CBF1E
:101AE000124B134B013498470A2C14D06B680B48E7
:101AF000002BE9D100680C490368DB6898476B68E4
:101B00000648002BE9D1006803680A219B6801346C
:101B100098470A2CEAD1074B984700BF8411002050
:101B2000ED790008A97900089C910008F57A000871
:101B3000C17A0008AD11000838B5164D002411E037
:101B4000022B0CBF144B154B154998476B68114875
:101B5000ABB10A21022B0CBF124B134B0134984737
:101B60000A2C14D06B680B48002BE9D100680C4993
:101B70000368DB6898476B680648002BE9D100686A
:101B800003680A219B68013498470A2CEAD1074B65
:101B9000984700BF84110020ED790008A97900085A
:101BA000B8910008F57A0008C17A0008AD11000864
:101BB00038B5164D002411E0022B0CBF144B154B09
:101BC000154998476B681148ABB10A21022B0CBF2D
:101BD000124B134B013498470A2C14D06B680B48F6
:101BE000002BE9D100680C490368DB6898476B68F3
:101BF0000648002BE9D1006803680A219B6801347C
:101C000098470A2CEAD1074B984700BF841100205F
:101C1000ED790008A979000894900008F57A000889
:101C2000C17A0008AD11000819491A4A002008B508
:101C3000087048701168184B21F440011160D16898
:101C400021F4400141F48001D160116821F4404148
:101C50001160D16821F4404141F48041D1601A689B
:101C600022F440321A60DA6822F4403242F48032C0
:101C7000DA601A6822F440221A60DA6822F44022FC
:101C800042F480223220DA60044B984708BD00BF3E
:101C90003407002000100240000C02401100002018
:101CA000704700BF10B582B00DF10700044B0C4621
:101CB000984718B19DF807300120237002B010BD7D
:101CC0007976000838B50C4614F8010B28B1034D9D
:101CD000A84714F8010B0028FAD138BD2176000876
:101CE00008B50846014B984708BD00BF217600089B
:101CF000436810B5044633B1022B0CBF054B064BAD
:101D00009847204610BD006803689B6898472046A6
:101D100010BD00BFF57A0008C17A000808B54FF47D
:101D2000FA70014B984708BD1100002010B5044619
:101D3000084611461A46024B9847204610BD00BF80
:101D400051750008014B0360704700BF38990008C7
:101D5000014B0360704700BF38990008034B10B572
:101D600004460360024B9847204610BDD8910008F6
:101D7000511D000810B5044B044698472046034BFC
:101D80009847204610BD00BF5D1D000891780008EF
:101D900010B5044B044698472046034B984720460D
:101DA00010BD00BF511D000891780008436810B5B0
:101DB000044633B1022B0CBF054B064B9847204617
:101DC00010BD00680368DB689847204610BD00BF5F
:101DD000ED790008A97900080160704700B5036833
:101DE000096883B0C91801A8024B9847019803B04D
:101DF00000BD00BFD91D000803680A68981AC043D7
:101E0000C00F7047014B1868704700BF780700206B
:101E1000044B05491A68096888541A6801321A6027
:101E2000704700BF78070020480000200848094B91
:101E3000094A30B4056811681C6815600022016009
:101E40000A5519681A60054B196030BC704700BF0D
:101E50004C00002078070020480000207407002074
:101E6000014B00221A60704778070020014B186868
:101E7000704700BF4C00002008B5084B1A6822F4D8
:101E800040621A60DA6822F4406242F48062012003
:101E9000DA60034B9847012008BD00BF00100240E4
:101EA000F9730008014B1868704700BF500000200C
:101EB00008B50248024B0021984708BD586002400F
:101EC000BD7C000808B50146034B044898470D2126
:101ED000034B984708BD00BFAD1D0008B0070020A8
:101EE000F11C0008064B1B68013301D0002070472D
:101EF000044B1868B0F10F0358425841704700BFB7
:101F0000500000207407002030B50E4C0E4B83B0FB
:101F1000204640F22551012298470023012501A8BF
:101F200027228DF805308DF80630084B8DF80420F7
:101F30008DF80750984720462946054B984703B02F
:101F400030BD00BF00480040657E0008497C0008A5
:101F5000497E000808B50248024B0521984708BD94
:101F600040000020B975000838B50446214B984759
:101F70000D2C07D0204CA047312800DC38BD1F4B6A
:101F8000984738BD1E4B98471E4B1C691E4BC4F327
:101F900040142046984714BB1C4B98470378452BA8
:101FA0000ED01B4D144C4FF0FF332B60A0470F2871
:101FB0001CD0124B9847A04700F5FA602860DAE77A
:101FC0004378522BEDD102214FF0FF320630114BF6
:101FD000094C98470E4B1860084B9847CBE7074BC6
:101FE00098470B4B40F6B8321A6038BD0A4B9847F9
:101FF000C1E700BF111E0008051E0008611E000891
:10200000551F000800100240FD6800086D1E000802
:1020100050000020850500082D1E000808B5014B62
:10202000984708BD551F000810B5034B0446984754
:10203000024B2046236010BD451D0008D8910008C2
:1020400070B50B4D0B4C0C4E042201234FF4E131C3
:102050002846B04729462046084B9847204608495D
:10206000084A094B98472146084B0948984770BDD4
:102070003C070020380700202D1D000829200008FB
:102080005D1D0008580100208D780008F1780008D7
:10209000B007002010B584B0084B01910446984762
:1020A00004AB01A943F8040D1846054B98470123DA
:1020B00020602371204604B010BD00BF156E0008DB
:1020C000DD1D000830B50579012D83B0044602D02E
:1020D000012003B030BD074B984702AB214643F8BF
:1020E000040D1846044B98470028F2D002232371B0
:1020F0002846EEE7156E0008F91D00082DE9F041AD
:1021000084B02F4B2F4F304E04AD804600249847AB
:102110002E482F4B40F2255100229847B84705F82A
:102120000D4D28460134B047642CFAD14046294B66
:1021300098474FF47A71284B01A8984702A8019953
:10214000264B984700242846B0472549631C38B1E0
:102150009DF80320FE2B0A5516DC0D2A14D01C46D0
:1021600002A8204B98470028EDD0B8471E4B98474F
:102170001E4B98479DF803300D2B0FD0FE2C07DD2A
:102180001B4804B0BDE8F08100220A551C46ECE76C
:1021900002A8144B984718B11648F2E71048F0E728
:1021A0001549164C1648A047164B054698219847E6
:1021B00015492846A0470A21144B98471448E0E7E0
:1021C000B11E00081D1D0008797600080048004077
:1021D000657E0008C51E0008D91D0008952000086E
:1021E000B8070020C52000081D200008091F0008AE
:1021F000F09100082092000850920008AD1D0008E0
:1022000084110020F978000868920008F11C000889
:10221000F090000808B5014B984708BD4120000820
:10222000D0ED005A9FED247AF6EE007AF8EEE55AEA
:10223000F0EE674A45EE874AD0ED016AF8EEE66AAD
:10224000F0EE645AF0EE674A46EE874A90ED026A75
:1022500090ED035AB8EEC66AF0EE646AF0EE674A93
:10226000B8EEC55A46EE074AF8B545EE077AFDEED8
:10227000E55A124B124E134D134CC3ED005ABDEEEE
:10228000E47A124BFDEEE66A83ED007AFDEEE77A22
:102290000F4B15EE907AC6ED006AC3ED007AA847A1
:1022A000A0470C4B36681F60A847A0470A4B1E602A
:1022B0000A4B00221A70F8BD0000FA44C008002042
:1022C000C4080020B10E0008950E0008B8080020D0
:1022D000BC0800208006002074060020C8080020EA
:1022E0002DE9F8432C4C2D4B25689847281A80EA95
:1022F000E075A5EBE075012D01DDBDE8F883DFF8A1
:10230000D480274BD8F800509847281A80EAE07507
:10231000A5EBE075012D16DCDFF8BC9099F80030D4
:102320009BB9204B204E1F68204D012389F80030B7
:10233000B047A8471E4B27601C68B047A847C8F89D
:102340000040BDE8F883BDE8F8831A4B1A4D00221F
:102350001A700120194B98476B6883B1022B2846ED
:1023600017490CBF174B184B98476B68124863B15D
:102370000A21022B0CBF154B154B9847D1E7286853
:102380000F490368DB689847EFE7006803680A2194
:102390009B689847C5E700BF80060020890E0008AB
:1023A000810E0008B8080020B10E0008950E000844
:1023B000BC080020D0080020BC130020D56700080E
:1023C0008C920008ED790008A9790008F57A0008D8
:1023D000C17A000874060020C808002010B5084C17
:1023E000084B0020984723680133B3F57A7F2360B8
:1023F00000D010BD044B98470023236010BD00BFE0
:10240000CC080020E1090008551F0008436810B5FA
:1024100004463BB10A21022B0CBF054B054B9847E4
:10242000204610BD006803680A219B689847F7E7BB
:10243000F57A0008C17A00082DE9F04F002083B03A
:1024400040F2DC51484B9847002840F08380474BCE
:10245000DFF888A1DFF88891DFF88881DFF888B19C
:10246000434C444E444D454F9847454B9847024690
:10247000444901924448D047019A01901146C84707
:10248000019B1846C047414B98470246404901927C
:102490003D48D047019A01901146C847019B184614
:1024A000C0473C4B984702463B4901923648D047CB
:1024B000019A01901146C847019B1846C047374B07
:1024C00098470246364901922F48D047019A019019
:1024D0001146C847019B1846C047324B98470246F1
:1024E000314901922848D047019A01901146C847C6
:1024F000019B1846C0472D4B984703462C49019332
:102500002148D047019B82461946C8475046C047DC
:102510002848294B98470020284B98470020D84747
:10252000274B9847274B9847274B98470120274B25
:1025300098470120D847214B01209847244B9847C2
:10254000A047B047A0472B78002BF9D03B68002B61
:10255000F5D1F5E700200821A8221E4B98471E4B15
:1025600040F2DC50984772E7C1760008A565000884
:10257000C1010008DD590008D0080020D40800205F
:102580001D5900089C920008BC130020811000080F
:10259000A892000865260008B8920008291C0008C7
:1025A000C4920008B9080008D8920008791E0008F3
:1025B000E8920008DD230008716E0008F90E00089B
:1025C000416C00087D6900081D200008D5670008DF
:1025D00049030008ED7600082D770008AD1D0008BE
:1025E000F97800080D240008CD0E0008B0F5966FAC
:1025F0000ADC10F5966F0EDA4FF49660084B002255
:10260000186043F8042C70474FF49660054B002285
:1026100018605A6070470028F8DC4042EEE700BFBF
:102620003804004034040040B0F5966F0ADC10F521
:10263000966F0EDA4FF49660084B0022186043F84C
:10264000042C70474FF49660054B002218605A60C6
:1026500070470028F8DC4042EEE700BF400400402D
:102660003C0400402DE9F0417F4E804835688049A8
:10267000804B814A814C824FDFF8148225F030056F
:102680003560F56825F0300545F01005F560456CBE
:1026900045F4804545648D6845F480758D609D687E
:1026A00045F004059D60DD6845F00405DD60D3F864
:1026B00000E04EF0040EC3F800E0F0254FF4807EF9
:1026C00082F80853C2F800E0D6F800E02EF4407E0D
:1026D000C6F800E0D6F80CE02EF4407E4EF4807E82
:1026E000C6F80CE0D0F844E04EF4804EC0F844E068
:1026F000C86840F00100C860996841F01001996015
:10270000D96841F01001D960196841F010011960D1
:102710004FF4806382F80A531360236823F4405314
:1027200043F400532360236A23F0706343F0007383
:102730002362636823F040036360A36823F440537B
:1027400043F48053A360E36823F44053E3602368B9
:1027500023F4404343F400432360236A23F070438F
:1027600043F000532362636823F080036360A3682F
:1027700023F4404343F48043A360E36823F44043DD
:10278000E360236823F4403343F400332360636A37
:1027900023F00F0343F002036362636823F4807342
:1027A0006360A36823F4403343F48033A360E36899
:1027B00023F44033E360236823F4402343F40023ED
:1027C0002360636A23F0F00343F0200363626368CD
:1027D00023F400736360A36823F4402343F480234D
:1027E000A360E36882B023F440230025E360254B17
:1027F000254C9847284629462A462B460095A0474F
:1028000001204FF49664034660212A463D85FC6210
:10281000C0470220602101232A46C04703206021CF
:1028200001232A46C0470123042060212A46C047CD
:10283000BB8A9BB243F00103BB823B889BB243F04F
:1028400001033B8033695A070AD5074B1B69DB0636
:1028500002D420200D4B9847012002B0BDE8F08142
:1028600010200A4B9847F0E700040240003802406D
:1028700000380140003C014000E100E00008024057
:10288000000400409D6F0008BD6F0008D567000878
:10289000F96F000808B5074B5A6942F004025A6103
:1028A00003F548431B69590702D41020024B98478F
:1028B00008BD00BF003C0140D567000808B5074BC4
:1028C0005A6942F010025A6103F548431B69D80661
:1028D00002D42020024B984708BD00BF003C0140B5
:1028E000D5670008BFF34F8F044A054BD16801F448
:1028F000E0610B43D360BFF34F8FFEE700ED00E0D4
:102900000400FA05034B00221A70034B01201870D3
:10291000704700BFD0080020D8080020034B0120DA
:102920001870034B00221A70704700BFD0080020B7
:10293000D8080020014B0360704700BF3899000899
:10294000014B0360704700BF38990008014B0360DA
:10295000704700BF38990008014B0360704700BF03
:1029600038990008014B0360704700BF3899000890
:10297000014B0360704700BF38990008014B0360AA
:10298000704700BF38990008014B0360704700BFD3
:1029900038990008704700BF00207047704700BF9B
:1029A00000207047704700BF00207047704700BF8D
:1029B00000207047704700BF00207047704700BF7D
:1029C00000207047704700BF00207047704700BF6D
:1029D00010B582B00DF10700044B0C46984718B1B2
:1029E0009DF807300120237002B010BDB1730008BC
:1029F00038B50C4614F8010B28B1034DA84714F85C
:102A0000010B0028FAD138BD5973000808B50846F3
:102A1000014B984708BD00BF59730008034B10B520
:102A200004460360024B9847204610BD38990008C1
:102A300091780008034B10B504460360024B984799
:102A4000204610BD3899000891780008034B10B556
:102A500004460360024B9847204610BD3899000891
:102A600091780008034B10B504460360024B984769
:102A7000204610BD3899000891780008034B10B526
:102A800004460360024B9847204610BD3899000861
:102A900091780008034B10B504460360024B984739
:102AA000204610BD3899000891780008034B10B5F6
:102AB00004460360024B9847204610BD3899000831
:102AC00091780008034B10B504460360024B984709
:102AD000204610BD389900089178000808B5024BCF
:102AE0009847002008BD00BF49030008F8B5874C8F
:102AF0006368002B00F0B880022B20460CBF844B8B
:102B0000844B8549984763688048002B00F0B68065
:102B10000A21022B0CBF814B814B9847814B7B4E86
:102B20001968814D3046A8476368002B00F0E780A4
:102B3000022B30467D490CBF754B764B98477C4B3A
:102B4000984763680646002B00F0D580022B00F002
:102B50000181734F6D48310EB8476C48C6F3074189
:102B6000B8476A48C6F30721B8476848F1B2B84782
:102B700063686648002B00F0B880022B6B490CBFDD
:102B8000634B644B98476B4B604E19683046A847BF
:102B90006368002B00F0A380022B304663490CBF12
:102BA0005B4B5C4B9847644B584E19683046A847BE
:102BB0006368002B00F08D80022B30465B490CBF10
:102BC000534B544B98475D4B504E19683046A847BD
:102BD0006368002B77D0022B304654490CBF4C4B16
:102BE0004C4B9847564B494E19683046A847636886
:102BF000002B62D00A21022B30460CBF474B484BBA
:102C0000984763684148002B51D0022B4D490CBFB7
:102C10003F4B404B984763683C48002B41D00A210A
:102C2000022B0CBF3D4B3E4B9847474B374E197814
:102C30003046A8476368002B2DD0022B304643490D
:102C40000CBF334B334B9847414B304E19783046CD
:102C5000A8476368C3B10A21022B30460CBF2F4B33
:102C60002F4B98470020F8BD20682B490368DB688C
:102C7000984763682548002B7FF44AAF00680368D3
:102C80000A219B68984749E7306803680A219B68D6
:102C900098470020F8BD30682C490368DB689847E6
:102CA000D2E7006803680A219B689847BDE700687F
:102CB00024490368DB689847ADE7306803680A2158
:102CC0009B6898479DE7306818490368DB68984718
:102CD00088E7306815490368DB68984773E7306810
:102CE00012490368DB6898475DE700680F4903688D
:102CF000DB68984747E705483146A84738E730681A
:102D00000A490368DB68984719E700BFD013002021
:102D1000ED790008A979000800940008F57A000808
:102D2000C17A000880060020F9780008F4980008AD
:102D3000890E0008780600207C0600201407002079
:102D4000180700201894000888060020389400080E
:102D500089060020074F0848310EB847C6F30741DF
:102D60000548B847C6F307210348B8470248F1B2FF
:102D7000B847FDE6F57A0008D0130020F8B5874C77
:102D80006368002B00F0B880022B20460CBF844BF8
:102D9000844B8549984763688048002B00F0B680D3
:102DA0000A21022B0CBF814B814B9847814B7B4EF4
:102DB0001968814D3046A8476368002B00F0E78012
:102DC000022B30467D490CBF754B764B98477C4BA8
:102DD000984763680646002B00F0D580022B00F070
:102DE0000181734F6D48310EB8476C48C6F30741F7
:102DF000B8476A48C6F30721B8476848F1B2B847F0
:102E000063686648002B00F0B880022B6B490CBF4A
:102E1000634B644B98476B4B604E19683046A8472C
:102E20006368002B00F0A380022B304663490CBF7F
:102E30005B4B5C4B9847644B584E19683046A8472B
:102E40006368002B00F08D80022B30465B490CBF7D
:102E5000534B544B98475D4B504E19683046A8472A
:102E60006368002B77D0022B304654490CBF4C4B83
:102E70004C4B9847564B494E19683046A8476368F3
:102E8000002B62D00A21022B30460CBF474B484B27
:102E9000984763684148002B51D0022B4D490CBF25
:102EA0003F4B404B984763683C48002B41D00A2178
:102EB000022B0CBF3D4B3E4B9847474B374E197882
:102EC0003046A8476368002B2DD0022B304643497B
:102ED0000CBF334B334B9847414B304E197830463B
:102EE000A8476368C3B10A21022B30460CBF2F4BA1
:102EF0002F4B98470020F8BD20682B490368DB68FA
:102F0000984763682548002B7FF44AAF0068036840
:102F10000A219B68984749E7306803680A219B6843
:102F200098470020F8BD30682C490368DB68984753
:102F3000D2E7006803680A219B689847BDE70068EC
:102F400024490368DB689847ADE7306803680A21C5
:102F50009B6898479DE7306818490368DB68984785
:102F600088E7306815490368DB68984773E730687D
:102F700012490368DB6898475DE700680F490368FA
:102F8000DB68984747E705483146A84738E7306887
:102F90000A490368DB68984719E700BFD01300208F
:102FA000ED790008A979000800940008F57A000876
:102FB000C17A000874060020F9780008F498000827
:102FC000810E00086C060020700600201C070020FF
:102FD0002007002018940008D0060020389400082C
:102FE000D1060020074F0848310EB847C6F3074105
:102FF0000548B847C6F307210348B8470248F1B26D
:10300000B847FDE6F57A0008D0130020F8B56B4C00
:103010006368002B00F09480022B204668490CBFA7
:10302000684B694B9847694B644E1969684D304647
:10303000C1F3C021A8476368002B00F0B880022BC1
:10304000304664490CBF5F4B5F4B98475F4B5B4E0C
:1030500019693046C1F3C011A8476368002B00F01E
:10306000A080022B30465C490CBF564B564B98470C
:103070005A4B524E19693046C1F30021A847636884
:10308000002B00F08880022B304652490CBF4D4B7C
:103090004D4B9847514B494E19693046C1F3402179
:1030A000A8476368002B70D00A21022B30460CBF62
:1030B0004B4B4C4B984763684048002B5FD0022B2A
:1030C00049490CBF3F4B404B9847484E3B4F3178E6
:1030D0003846A8476368002B4BD0022B38463D4941
:1030E0000CBF384B384B98477178344E3046A84760
:1030F0006368002B37D0022B304637490CBF314B69
:10310000314B98473A4E2D4F31783846A84763687F
:10311000002B22D0022B38462E490CBF294B2A4BBC
:1031200098477178254E3046A847636873B10A21E5
:10313000022B30460CBF2A4B2A4B98470020F8BD83
:1031400020681F490368DB6898476CE730680368AC
:103150000A219B6898470020F8BD38681D4903681C
:10316000DB689847DDE730681B490368DB689847F0
:10317000C8E7386817490368DB689847B4E7006810
:1031800019490368DB6898479FE7306803680A219C
:103190009B6898478FE730680E490368DB6898475B
:1031A00078E730680C490368DB68984760E7306867
:1031B00008490368DB68984748E700BFD013002040
:1031C0003C940008ED790008A9790008001002403D
:1031D000F97800084C94000850940008000C024054
:1031E000F57A0008C17A000858940008E008002029
:1031F000DC080020154B10B50022154C1A70012078
:10320000144B984763688BB1022B20460CBF124BBE
:10321000124B1349984763680D4883B10A21022B6A
:103220000CBF104B104B9847012010BD20680C4973
:103230000368DB68984763680548002BEED1006897
:1032400003680A219B689847012010BDD008002020
:10325000BC130020D5670008ED790008A9790008A3
:103260008C920008F57A0008C17A0008002210B597
:103270001C4B984707EE900AF5EE407AF1EE10FAF3
:103280000DD077EEA77AB6EE007A77EE877A164BF6
:10329000FDEEE77A17EE900A9847012010BD134C17
:1032A00063688BB1022B204611490CBF114B124BA6
:1032B000984764680D486CB10A21022C0CBF0F4B73
:1032C0000F4B9847002010BD206809490368DB6850
:1032D0009847EEE7006803680A219B6898472046F4
:1032E00010BD00BF9107000891040008D013002012
:1032F0006C940008ED790008A9790008F57A0008B7
:10330000C17A0008012170B50A461A4B9847051C7E
:1033100018BF0125DDB9184C184B98476368E3B115
:10332000022B204616490CBF164B174B9847124EDE
:10333000164B3046294698476368A3B10A21022BF1
:1033400030460CBF124B134B9847012070BD0A4CFE
:10335000114B98476368002BE2D120680849036845
:10336000DB689847E3E7306803680A219B68984761
:10337000012070BD85050008BC130020916900087C
:1033800094940008ED790008A9790008F9780008FC
:10339000F57A0008C17A00087D69000838B5144C38
:1033A0006368C3B1022B204612490CBF124B134B6A
:1033B0009847134B0E4D9847124B014628469847A5
:1033C000636873B10A21022B28460CBF0E4B0F4BCA
:1033D0009847002038BD206806490368DB68984795
:1033E000E7E7286803680A219B689847002038BDF2
:1033F000D0130020A4940008ED790008A9790008F2
:10340000A51E0008F9780008F57A0008C17A0008BE
:1034100070B501210222174B174C9847051C18BFA5
:103420000125164B284698476368B3B1022B204606
:1034300013490CBF134B144B98470F4E134B304698
:1034400029469847636873B10A21022B30460CBFA6
:103450000F4B104B9847012070BD20680849036846
:10346000DB689847E9E7306803680A219B6898475A
:10347000012070BD85050008BC130020A5040008CC
:10348000B4940008ED790008A9790008F9780008DB
:10349000F57A0008C17A000838B51D4B1D4C9847D5
:1034A00063680546D3B1022B20460CBF1A4B1B4B59
:1034B0001B49984763681748CBB1022B0CBF164BCA
:1034C000164B2946984763681248CBB10A21022B54
:1034D0000CBF144B144B9847002038BD206810498E
:1034E0000368DB68984763680A48002BE5D10068E9
:1034F00003682946DB68984763680648002BE5D1D6
:10350000006803680A219B689847002038BD00BF07
:10351000FD200008D0130020ED790008A9790008EB
:10352000C4940008F57A0008C17A0008002910B593
:10353000024615DD1B4C6368002B26D0022B20466B
:1035400011460CBF184B194B984763681548ABB12F
:103550000A21022B0CBF164B164B9847002010BDBA
:10356000154C6368BBB1022B204614490CBF0E4BAF
:103570000E4B984763681048002BE9D10068036838
:103580000A219B689847002010BD206803681146F7
:10359000DB689847D9E7206808490368DB689847E3
:1035A000E8E700BF8C110020ED790008A979000838
:1035B000F57A0008C17A0008D0130020CC940008E6
:1035C00030B52DED028B9FED338A83B018EE102AB3
:1035D000314B984707EE900AF4EE487AF1EE10FA74
:1035E000019004D1002003B0BDEC028B30BD2B4B09
:1035F0002B4C9847DDED016A9FED2A7AF6EE007AB2
:1036000046EE877A0120FDEEE77A274BF8EEE77A5F
:10361000CDED017A9847254B984707EE900AB8EE12
:10362000E77ADDED017A77EE277A214BBDEEE78A66
:10363000CDED017A98471F4B98471F4B204683EDED
:10364000008A02211D4B98476368B3B1022B2046C4
:103650001B490CBF1B4B1C4B9847114D1B4B28465D
:1036600001A99847636873B10A21022B28460CBF51
:10367000174B184B98470120B5E72068104903689D
:10368000DB689847E9E7286803680A219B68984740
:103690000120A8E7804FC347910700089D690008F3
:1036A000BC1300200000FA44F90E0008810E000847
:1036B000B10E0008950E000874060020F978000885
:1036C000E8940008ED790008A97900082D7B00082E
:1036D000F57A0008C17A000830B52DED028B9FED18
:1036E0002E8A83B018EE102A2C4B984707EE900ACA
:1036F000F4EE487AF1EE10FA019004D1002003B004
:10370000BDEC028B30BD264B264C9847DDED016A9F
:103710009FED257AF6EE007A46EE877A0120FDEEDF
:10372000E77A224BF8EEE77ACDED017A98479DEDE6
:10373000018A1F4B98471F4B9847BDEEC88A1E4B06
:10374000204683ED008A02211C4B98476368B3B181
:10375000022B20461A490CBF1A4B1B4B9847114DA0
:103760001A4B284601A99847636873B10A21022BB6
:1037700028460CBF164B174B98470120BFE720681F
:103780000F490368DB689847E9E7286803680A215E
:103790009B6898470120B2E7804FC3479107000814
:1037A0009D690008BC1300200000FA44F90E0008CF
:1037B000B10E0008950E000874060020F978000884
:1037C000E8940008ED790008A97900082D7B00082D
:1037D000F57A0008C17A000830B52DED028B9FED17
:1037E0002E8A83B018EE102A2C4B984707EE900AC9
:1037F000F4EE487AF1EE10FA019004D1002003B003
:10380000BDEC028B30BD264B264C9847DDED016A9E
:103810009FED257AF6EE007A46EE877A0120FDEEDE
:10382000E77A224BF8EEE77ACDED017A98479DEDE5
:10383000018A1F4B98471F4B9847BDEEC88A1E4B05
:10384000204683ED008A00211C4B98476368B3B182
:10385000022B20461A490CBF1A4B1B4B9847114D9F
:103860001A4B284601A99847636873B10A21022BB5
:1038700028460CBF164B174B98470120BFE720681E
:103880000F490368DB689847E9E7286803680A215D
:103890009B6898470120B2E7804FC3479107000813
:1038A0009D690008BC1300200000FA44F90E0008CE
:1038B000B10E0008950E000880060020F978000877
:1038C000E8940008ED790008A97900082D7B00082C
:1038D000F57A0008C17A000830B52DED028B9FED16
:1038E000338A83B018EE102A314B984707EE900ABE
:1038F000F4EE487AF1EE10FA019004D1002003B002
:10390000BDEC028B30BD2B4B2B4C9847DDED016A93
:103910009FED2A7AF6EE007A46EE877A0120FDEED8
:10392000E77A274BF8EEE77ACDED017A9847254BF9
:10393000984707EE900AB8EEE77ADDED017A77EE68
:10394000277A214BBDEEE78ACDED017A98471F4BD0
:1039500098471F4B204683ED008A00211D4B984756
:103960006368B3B1022B20461B490CBF1B4B1C4B99
:103970009847114D1B4B284601A99847636873B1BE
:103980000A21022B28460CBF174B184B98470120E1
:10399000B5E7206810490368DB689847E9E72868BD
:1039A00003680A219B6898470120A8E7804FC34716
:1039B000910700089D690008BC1300200000FA442C
:1039C000F90E0008890E0008B10E0008950E0008D7
:1039D00080060020F9780008E8940008ED790008D6
:1039E000A97900082D7B0008F57A0008C17A000843
:1039F00030B54FF0804283B02C4B984707EE900AC9
:103A0000B0EE007AF4EE477AF1EE10FA01901ED093
:103A1000274C284B98476368002B2DD0022B20465B
:103A200025490CBF254B264B9847214D254B284651
:103A300001A998476368002B24D00A21022B28464D
:103A40000CBF214B214B9847012003B030BD204CC7
:103A500063682BB3022B20461E490CBF174B184B33
:103A6000984764681A48A4B10A21022C0CBF164B6F
:103A7000164B98470020E8E720680F490368DB6889
:103A80009847D2E7286803680A219B689847012075
:103A9000DBE7006803680A219B6898472046D4E763
:103AA00020680C490368DB689847DAE7910700084B
:103AB000BC130020750F000818950008ED79000868
:103AC000A97900082D7B0008F57A0008C17A000862
:103AD00084110020F494000870B54FF0804282B049
:103AE000474B984707EE900AB0EE007AF4EE477A1B
:103AF000F1EE10FA019044D0424B434E984700201B
:103B0000B0470120414B9847414B019898470446E4
:103B10000D460020B0472046294600223D4B3E4E30
:103B2000B047002843D03B4D002433A3D3E9002302
:103B300020462946394C3A4EA0473A4B98473A4BD3
:103B400002211860394B304698477368002B40D0EB
:103B5000022B304636490CBF364B374B9847304C1A
:103B6000364B204601A998477368002B2AD00A21BA
:103B7000022B20460CBF324B324B9847012002B03B
:103B800070BD314C6368002B30D0022B20462F498A
:103B90000CBF284B284B984764682B48FCB10A217E
:103BA000022C0CBF264B274B98470020E7E7204606
:103BB00029460022264B274EB0470028B5D00024C6
:103BC000234DB2E7206803680A219B6898470120CB
:103BD000D5E7306816490368DB689847BFE7006897
:103BE00003680A219B6898472046C8E72068174960
:103BF0000368DB689847CFE70000000000EDE7406E
:103C0000910700089D690008F90E0008CD0E000814
:103C1000758100080000F03F3D8700081D82000804
:103C2000BC130020518700086C060020F9780008BA
:103C300018950008ED790008A97900082D7B000887
:103C4000F57A0008C17A0008841100202895000840
:103C50000000F0BF0187000870B54FF0804282B0CD
:103C6000474B984707EE900AB0EE007AF4EE477A99
:103C7000F1EE10FA019044D0424B434E9847002099
:103C8000B0470120414B9847414B01989847044663
:103C90000D460020B0472046294600223D4B3E4EAF
:103CA000B047002843D03B4D002433A3D3E9002381
:103CB00020462946394C3A4EA0473A4B98473A4B52
:103CC00000211860394B304698477368002B40D06C
:103CD000022B304636490CBF364B374B9847304C99
:103CE000364B204601A998477368002B2AD00A2139
:103CF000022B20460CBF324B324B9847012002B0BA
:103D000070BD314C6368002B30D0022B20462F4908
:103D10000CBF284B284B984764682B48FCB10A21FC
:103D2000022C0CBF264B274B98470020E7E7204684
:103D300029460022264B274EB0470028B5D0002444
:103D4000234DB2E7206803680A219B689847012049
:103D5000D5E7306816490368DB689847BFE7006815
:103D600003680A219B6898472046C8E720681749DE
:103D70000368DB689847CFE70000000000EDE740EC
:103D8000910700089D690008F90E0008CD0E000893
:103D9000758100080000F03F3D8700081D82000883
:103DA000BC1300205187000878060020F97800082D
:103DB00018950008ED790008A97900082D7B000806
:103DC000F57A0008C17A00088411002028950008BF
:103DD0000000F0BF01870008F8B56FF00042254BE6
:103DE00098476FF000439842054634D02248234B51
:103DF000234C244E98470520234B9847234B002003
:103E00009D42B8BF1D46224B9847B5F5966FA8BF97
:103E10004FF4966500201F4B98471F4B2846984744
:103E200020460021B0476368BBB1022B20461B49E6
:103E30000CBF1B4B1B4B9847114F29463846B047C8
:103E4000636883B10A21022B38460CBF164B174B0F
:103E500098470120F8BD0020F8BD20680F4903688D
:103E6000DB689847E8E7386803680A219B68984749
:103E70000120F8BD850500083F900200496E00084A
:103E8000BC130020F97800081100002050FBFFFF50
:103E9000F90E0008CD0E0008ED2500085095000829
:103EA000ED790008A9790008F57A0008C17A0008C0
:103EB000F8B56FF00042254B98476FF000439842E9
:103EC000054634D02248234B234C244E98470520E6
:103ED000234B9847234B00209D42B8BF1D46224BE1
:103EE0009847B5F5966FA8BF4FF4966500201F4B15
:103EF00098471F4B2846984720460221B0476368E1
:103F0000BBB1022B20461B490CBF1B4B1B4B9847D8
:103F1000114F29463846B047636883B10A21022B06
:103F200038460CBF164B174B98470120F8BD0020B0
:103F3000F8BD20680F490368DB689847E8E73868F0
:103F400003680A219B6898470120F8BD8505000891
:103F50003F900200496E0008BC130020F978000869
:103F60001100002050FBFFFFF90E0008CD0E0008E5
:103F70002926000850950008ED790008A979000865
:103F8000F57A0008C17A00082DE9F0410F4617F8CC
:103F9000013B7BB1334C226840F229118A420BD09D
:103FA0000A2B34D03048511C8354216017F8013B50
:103FB000002BEFD1BDE8F0812B4D2C4E85F8293137
:103FC0004D204FF495732360B04721686918A942CA
:103FD00043D000202B4613F8012B994280EA0200BF
:103FE000F9D180F04D00C0B2B0472C20B047236813
:103FF00005EB0308A84505D01B4D15F8010BB0478C
:10400000A845FAD10A20B04700232360BFE74D201E
:10401000164E154DB04721686918A9421FD00020DF
:104020002B4613F8012B994280EA0200F9D180F067
:104030004D00C0B2B0472C20B047236805EB030801
:10404000A845DFD0084D15F8010BB047A845FAD1B7
:104050000A20B0470023236099E74D20C4E74D2094
:10406000E8E700BF1C0F0020200F00205973000854
:10407000F8B51B4C236840F22912934206D00A2956
:104080001DD018485A1CC1542260F8BD154D164E5B
:1040900085F8291144204FF495732360B0472C20F4
:1040A000B0472768EF19AF4204D015F8010BB047AD
:1040B000AF42FAD10A20B04700232360F8BD442064
:1040C000094E084DB0472C20B0472768EF19AF4282
:1040D000F0D015F8010BB047AF42FAD1EAE700BFC4
:1040E000EC0D0020F00D0020597300082DE9F0417F
:1040F0000F4617F8013B7BB1204C226840F2291192
:104100008A420BD00A2B23D01D48511C83542160B6
:1041100017F8013B002BEFD1BDE8F081184D194E87
:1041200085F8293144204FF495732360B0472C2043
:10413000B047236805EB0308A84504D015F8010B28
:10414000B047A845FAD10A20B04700232360D0E742
:1041500044200C4E0A4DB0472C20B047236805EB95
:104160000308A845EFD015F8010BB047A845FAD1D0
:104170000A20B04700232360BBE700BFEC0D0020FE
:10418000F00D002059730008F8B51B4C236840F26D
:104190002912934206D00A291DD018485A1CC1542E
:1041A0002260F8BD154D164E85F829114B204FF4AD
:1041B00095732360B0472C20B0472768EF19AF42B2
:1041C00004D015F8010BB047AF42FAD10A20B0472E
:1041D00000232360F8BD4B20094E084DB0472C202A
:1041E000B0472768EF19AF42F0D015F8010BB04780
:1041F000AF42FAD1EAE700BF2C09002030090020C5
:10420000597300082DE9F0410F4617F8013B7BB1C7
:10421000204C226840F229118A420BD00A2B23D06D
:104220001D48511C8354216017F8013B002BEFD12E
:10423000BDE8F081184D194E85F829314B204FF417
:1042400095732360B0472C20B047236805EB030823
:10425000A84504D015F8010BB047A845FAD10A20AB
:10426000B04700232360D0E74B200C4E0A4DB047E7
:104270002C20B047236805EB0308A845EFD015F8BC
:10428000010BB047A845FAD10A20B04700232360AC
:10429000BBE700BF2C09002030090020597300083B
:1042A000F8B51B4C236840F22912934206D00A2924
:1042B0001DD018485A1CC1542260F8BD154D164E29
:1042C00085F8291143204FF495732360B0472C20C3
:1042D000B0472768EF19AF4204D015F8010BB0477B
:1042E000AF42FAD10A20B04700232360F8BD432033
:1042F000094E084DB0472C20B0472768EF19AF4250
:10430000F0D015F8010BB047AF42FAD1EAE700BF91
:104310005C0A0020600A0020597300082DE9F04172
:104320000F4617F8013B7BB1204C226840F229115F
:104330008A420BD00A2B23D01D48511C8354216084
:1043400017F8013B002BEFD1BDE8F081184D194E55
:1043500085F8293143204FF495732360B0472C2012
:10436000B047236805EB0308A84504D015F8010BF6
:10437000B047A845FAD10A20B04700232360D0E710
:1043800043200C4E0A4DB0472C20B047236805EB64
:104390000308A845EFD015F8010BB047A845FAD19E
:1043A0000A20B04700232360BBE700BF5C0A00205F
:1043B000600A002059730008F8B51B4C236840F2CE
:1043C0002912934206D00A291DD018485A1CC154FC
:1043D0002260F8BD154D164E85F8291149204FF47D
:1043E00095732360B0472C20B0472768EF19AF4280
:1043F00004D015F8010BB047AF42FAD10A20B047FC
:1044000000232360F8BD4920094E084DB0472C20F9
:10441000B0472768EF19AF42F0D015F8010BB0474D
:10442000AF42FAD1EAE700BF8C0B0020900B0020CE
:10443000597300082DE9F0410F4617F8013B7BB195
:10444000204C226840F229118A420BD00A2B23D03B
:104450001D48511C8354216017F8013B002BEFD1FC
:10446000BDE8F081184D194E85F8293149204FF4E7
:1044700095732360B0472C20B047236805EB0308F1
:10448000A84504D015F8010BB047A845FAD10A2079
:10449000B04700232360D0E749200C4E0A4DB047B7
:1044A0002C20B047236805EB0308A845EFD015F88A
:1044B000010BB047A845FAD10A20B047002323607A
:1044C000BBE700BF8C0B0020900B00205973000845
:1044D000F8B51B4C236840F22912934206D00A29F2
:1044E0001DD018485A1CC1542260F8BD154D164EF7
:1044F00085F8291145204FF495732360B0472C208F
:10450000B0472768EF19AF4204D015F8010BB04748
:10451000AF42FAD10A20B04700232360F8BD4520FE
:10452000094E084DB0472C20B0472768EF19AF421D
:10453000F0D015F8010BB047AF42FAD1EAE700BF5F
:10454000BC0C0020C00C0020597300082DE9F0417C
:104550000F4617F8013B7BB1204C226840F229112D
:104560008A420BD00A2B23D01D48511C8354216052
:1045700017F8013B002BEFD1BDE8F081184D194E23
:1045800085F8293145204FF495732360B0472C20DE
:10459000B047236805EB0308A84504D015F8010BC4
:1045A000B047A845FAD10A20B04700232360D0E7DE
:1045B00045200C4E0A4DB0472C20B047236805EB30
:1045C0000308A845EFD015F8010BB047A845FAD16C
:1045D0000A20B04700232360BBE700BFBC0C0020CB
:1045E000C00C002059730008F8B51B4C236840F23A
:1045F0002912934206D00A291DD018485A1CC154CA
:104600002260F8BD154D164E85F8291150204FF443
:1046100095732360B0472C20B0472768EF19AF424D
:1046200004D015F8010BB047AF42FAD10A20B047C9
:1046300000232360F8BD5020094E084DB0472C20C0
:10464000B0472768EF19AF42F0D015F8010BB0471B
:10465000AF42FAD1EAE700BF4C1000205010002012
:10466000597300082DE9F0410F4617F8013B7BB163
:10467000204C226840F229118A420BD00A2B23D009
:104680001D48511C8354216017F8013B002BEFD1CA
:10469000BDE8F081184D194E85F8293150204FF4AE
:1046A00095732360B0472C20B047236805EB0308BF
:1046B000A84504D015F8010BB047A845FAD10A2047
:1046C000B04700232360D0E750200C4E0A4DB0477E
:1046D0002C20B047236805EB0308A845EFD015F858
:1046E000010BB047A845FAD10A20B0470023236048
:1046F000BBE700BF4C100020501000205973000889
:10470000F8B52E4C236840F22912934206D00A29AC
:104710002ED02B485A1CC1542260F8BD284D294E7A
:1047200085F829114D204FF495732360B047216817
:104730006918A9423DD000202B4613F8012B99425D
:1047400080EA0200F9D180F04D00C0B2B0472C20C1
:10475000B0472768EF19AF4205D0194D15F8010B86
:10476000B047AF42FAD10A20B04700232360F8BD1A
:104770004D20144E124DB04721686918A9421AD035
:1047800000202B4613F8012B994280EA0200F9D150
:1047900080F04D00C0B2B0472C20B0472768EF1919
:1047A000AF42E0D0064D15F8010BB047AF42FAD149
:1047B000D9E74D20CAE74D20EDE700BF1C0F0020D0
:1047C000200F0020597300082DE9F843594F3B781A
:1047D0001BB1594B1B78002B39D0584C584ED4F88C
:1047E0000090584DB04745F83900D4F80080B047E4
:1047F000236805EBC8080133012BC8F804002360C7
:1048000077DD032B39D0504B504C98470120504B4B
:10481000984728464F4B98474F4A504B01201A6003
:104820004F4B98476368002B66D0022B20464D49BA
:1048300015D04D4B98476468B4B10A21022C0CBFC7
:104840004A4B4B4B414898470020BDE8F8833F4C0A
:104850006368002B47D0022B20464649E9D1464BDE
:1048600098476468002CE8D1384B186803680A211F
:104870009B6898472046BDE8F88301233B702E4B88
:104880003E4D00221A7004203D4B98476B68002B68
:1048900038D0022B28463B490CBF374B324B984748
:1048A0006B683648002B3FD00A21022B0CBF2F4BE0
:1048B0002F4B9847344D6B68002B2FD0022B284686
:1048C00032490CBF2C4B284B98476B682E48FBB1E4
:1048D0000A21022B0CBF254B254B98470023236050
:1048E0000120BDE8F883206822490368DB68984707
:1048F000A1E70020BDE8F88320681A490368DB6857
:10490000984798E728681F490368DB689847C7E716
:10491000006803680A219B689847DFE728681B49FD
:104920000368DB689847D0E7006803680A219B6842
:104930009847BFE7D0080020D8080020E4080020EE
:10494000810E0008E80800207D690008D0130020CF
:10495000F90E000821220008E1220008D4080020F6
:10496000A5040008A0950008A9790008F57A0008B8
:10497000C17A000860950008ED790008BC1300209A
:10498000D5670008849500088C11002094950008D4
:104990002DE9F04F8B4F3B7883B081468846002B42
:1049A0001AD0894B1B78BBB9884D6B68002B75D02A
:1049B000022B2846864951D0864B98476B68002BBE
:1049C00072D00A21022B81480CBF834B834B98473E
:1049D000002003B0BDE8F08F814C824ED4F800B0C7
:1049E000814DB04745F83B00D4F800A0B04723689C
:1049F00005EBCA050133032B68602360E8DD052B56
:104A000076D002A9794B51F8040D9847B8F1000F00
:104A1000064640F3AE80019BC9EB030398454ADB91
:104A2000734B6A4D98421CD8724B98470120724BC9
:104A3000984731466C48714B9847714A714B3046E4
:104A40001A60714B9847714B012098476B68002B97
:104A500000F08980022B28466D49ADD16D4B9847F7
:104A6000ACE76B68002B00F0A080022B28466A4957
:104A70000CBF684B574B9847544F684B38463146EC
:104A800098476B68002B00F08A8038460A21022B79
:104A90002BD0524B98470023236099E728684C4954
:104AA0000368DB68984789E7484B186803680A2160
:104AB0009B6898478CE75A4D6B68002B00F0C080CC
:104AC000022B284657490CBF524B424B984701993D
:104AD000534E524B3046C9EB010198476B68002B8F
:104AE00069D00A21022B3046D3D13B4B9847D2E7FD
:104AF00001233B70344B4C4D00221A7004204B4B69
:104B000098476B68002B28D0022B284648490CBFD9
:104B1000404B304B98476B684348002B00F0A28015
:104B20000A21022B0CBF2C4B2C4B9847414D6B6834
:104B3000002B00F09180022B28463F490CBF354BDB
:104B4000244B98476B683B48002B7FD00A21022BEF
:104B50000CBF214B214B984753E728683449036821
:104B6000DB689847D7E7286829490368DB689847D6
:104B700024E7164D6B68002B7AD0022B28462F496C
:104B80000CBF244B134B98476B681048002B7FF4E5
:104B90007DAF006803680A219B6898477BE7386807
:104BA00003680A219B68984775E728681A490368D3
:104BB000DB68984760E7306803680A219B6898477C
:104BC00069E700BFD0080020D8080020D0130020DB
:104BD00060950008A9790008F57A0008C17A0008F4
:104BE00000090020810E000804090020B10400081B
:104BF000A08601007D690008F90E0008C561000863
:104C0000D55C0008D408002091040008A504000821
:104C1000A0950008ED79000808960008F9780008CA
:104C200084110020F8950008BC130020D567000807
:104C3000849500088C11002094950008D8950008F0
:104C400028680E490368DB68984740E700680368F6
:104C50000A219B689847D4E6286809490368DB68FD
:104C600098476FE7006803680A219B6898475DE7EB
:104C7000286804490368DB68984785E7F8950008C9
:104C800094950008D89500082A4B012210B51A7097
:104C9000294B2A4C00221A700420294B984763683C
:104CA000002B26D0022B20460CBF264B264B274933
:104CB000984763682148002B24D00A21244C022BFA
:104CC0000CBF244B244B98476368002B23D0022B46
:104CD00020460CBF1B4B1C4B2049984763681C485F
:104CE000002B21D00A21022B0CBF1A4B1A4B9847DC
:104CF00010BD206815490368DB68984763680F4852
:104D0000002BDAD10068124C03680A219B6898478F
:104D10006368002BDBD1206810490368DB68984783
:104D200063680B48002BDDD1006803680A219B688B
:104D3000984710BDD0080020D8080020BC130020E0
:104D4000D5670008ED790008A97900088495000866
:104D50008C110020F57A0008C17A000894950008AB
:104D6000F0B589B08B4C8C4A0E4603A90546A04786
:104D700003A90490884A0398A04703A90590864A8E
:104D80000398A04703A90690834A0398A047834B42
:104D9000079003A903989847039B5B1BB342074600
:104DA00000F3BF809DED047ADFED7D7AB4EEE77A03
:104DB000F1EE10FA00F39880B5EEC07AF1EE10FA39
:104DC00000F19280DDED056AF4EEE76AF1EE10FA8B
:104DD00000F3C5809DED076AB5EEC06AF1EE10FAEA
:104DE00000F1BD80DDED065AF4EEE75AF1EE10FA5F
:104DF00000F3FC80B4EEE57AF1EE10FA00F3F680F1
:104E0000B4EEE76AF1EE10FA00F30581F4EEC66A3B
:104E1000F1EE10FA00F3FF80624B984200F21D8120
:104E2000614C6368002B00F0E181022B20465F4952
:104E30000CBF5F4B5F4B98475B4E5F4D304604A9FC
:104E4000A8476368002B00F0CB81022B30465B49FA
:104E50000CBF574B574B9847534E05A93046A847B0
:104E60006368002B00F0B681022B304653490CBF1B
:104E70004F4B504B98474C4E06A93046A8476368A5
:104E8000002B00F0A181022B30464C490CBF484B4F
:104E9000484B9847444E07A93046A8476368002B03
:104EA00000F0AA810A21022B30460CBF444B454B2F
:104EB0009847454D2B78002B00F0F380434B1B782F
:104EC000002B40F0EE80424C6368002B00F019820A
:104ED000022B20463F490CBF354B364B9847646840
:104EE000B4B93B4B18684FE0394C6368002B00F0B5
:104EF000A880022B204638490CBF2D4B2D4B9847DC
:104F0000334D2D4B284604A998476468002C3AD0AD
:104F10000A21022C2E481ED02A4B9847002009B0A7
:104F2000F0BD2E4C6368002B00F09180022B2046D0
:104F30002B490CBF1E4B1F4B98470399274E294BFB
:104F40003046491B98476468002C00F09C800A2179
:104F5000022C3046E0D11A4B98470020DFE71C4C6A
:104F60006368002B00F09180022B20461E490CBF85
:104F70000F4B104B9847164D0F4B284607A99847E3
:104F80006468002CC4D1286803680A219B6898478C
:104F90002046C4E7690600080050C347B104000872
:104FA0000000C842A0860100BC13002078960008CB
:104FB000ED790008A97900082D7B000838940008D5
:104FC000F57A0008C17A0008D0080020D80800202F
:104FD000D0130020609500083C9600088411002042
:104FE000F8950008F97800085C960008954C63680D
:104FF000002B50D0022B204693490CBF934B944B6F
:105000009847904D934B284606A998476468002C12
:105010007FF47EAFB7E78B4C6368002B00F0B58060
:10502000022B20468C490CBF884B894B9847854DF5
:10503000884B284605A998476468002C7FF468AF20
:10504000A1E7206885490368DB68984758E720682E
:1050500083490368DB6898476FE77A4C6368002BE5
:1050600000F0D080022B20467E490CBF774B784B56
:105070009847744D7C4B2846394698476468002C05
:105080007FF446AF7FE730687EE7206877490368A2
:10509000DB6898476FE720686B490368DB689847CF
:1050A000AFE7734B98470120724B9847724BDDED89
:1050B000047A93ED007AF4EE477AF1EE10FA79D1A2
:1050C0006E4A9DED057AD2ED006AB4EE667AF1EE95
:1050D00010FA60D09DED076ADDED066A6849694EF9
:1050E000C3ED007A0120684BC1ED006A86ED006ACD
:1050F00082ED007A984704980599644EDDED067AB2
:1051000007EE100A37EEC77ADDED077A17EE102AA0
:1051100007EE101A37EEC77A17EE103AB0475C4A1E
:105120005C4B1A6001232B705B4B002204201A7029
:105130005A4B984763685A48002B7CD0022B594938
:105140000CBF424B424B984763685548002B6CD0CC
:105150000A21022B0CBF544B544B9847544C6368A4
:10516000002B5CD0022B204652490CBF374B384BEA
:10517000984763684E48002B4AD00A21022B0CBF87
:10518000494B4A4B98470120C9E6206832490368D9
:10519000DB6898474BE73A49DDED066A91ED006A16
:1051A000F4EE466AF1EE10FA00F08A809DED076A8F
:1051B000344E95E79DED057A9DED076ADDED066AB3
:1051C0002E4A2F492F4E8BE730683B490368DB6836
:1051D00098475FE6306838490368DB6898474AE6D5
:1051E000306835490368DB68984735E620683349FD
:1051F0000368DB6898471FE6306803680A219B68EC
:10520000984756E6206817490368DB68984730E7F7
:10521000006803680A219B68984701207FE62068A0
:1052200024490368DB689847A3E7006803680A21FC
:105230009B68984792E700681A490368DB689847BB
:1052400082E700BFD013002038960008ED790008EF
:10525000A97900082D7B0008589600083C960008A4
:10526000F895000808960008F97800085C96000890
:105270007D690008F90E0008540000205800002045
:105280005C00002060000020A5040008C162000846
:1052900065640008D4080020D8080020D5670008FD
:1052A000BC13002084950008F57A0008C17A000834
:1052B0008C11002094950008389400087896000816
:1052C000134E9DED076AD6ED005AB4EE656AF1EE15
:1052D00010FA7FF405AF01200E4C0F4DA047059941
:1052E000069A079B04980097A8470C4A0C4B38462F
:1052F0001A600C4B98470120A0470B4B98470120A0
:105300000DE6206809490368DB689847E7E500BFB8
:1053100060000020A5040008E1600008D55C0008DA
:10532000D408002091040008894C0008609500080A
:10533000F0B589B08D4C8E4A0E4602A90546A047AD
:1053400002A903908A4A0298A04702A90490884AB9
:105350000298A04702A90590854A0298A047854B6C
:10536000069002A902989847029B5B1BB34207462E
:1053700000F3C3809DED037ADFED7F7AB4EEE77A28
:10538000F1EE10FA00F39C80B5EEC07AF1EE10FA5F
:1053900000F19680DDED046AF4EEE76AF1EE10FAB2
:1053A00000F3C980F5EEC06AF1EE10FA00F1C38097
:1053B0009DED056A37EE067AB4EEE77AF1EE10FA63
:1053C00000F38281B5EEC06AF1EE10FA40F27C8102
:1053D0009DED067A76EE876AF4EEE76AF1EE10FA52
:1053E00000F3F080B5EEC07AF1EE10FA40F2EA80F8
:1053F000624B984200F29181614C6368002B00F08F
:10540000F081022B20465F490CBF5F4B5F4B9847F2
:105410005B4E5F4D304603A9A8476368002B00F040
:10542000DA81022B30465B490CBF574B574B9847EC
:10543000534E04A93046A8476368002B00F0C5818D
:10544000022B304653490CBF4F4B504B98474C4EA4
:1054500005A93046A8476368002B00F0B081022BF5
:1054600030464C490CBF484B484B9847444E06A920
:105470003046A8476368002B00F09B810A21022B6D
:1054800030460CBF444B454B9847454D2B78002B7D
:1054900000F0AE80434B1B78002B40F0A980424CBB
:1054A0006368002B00F02182022B20463F490CBF8D
:1054B000354B364B98476468B4B93B4B18684FE09E
:1054C000394C6368002B00F02281022B20463849BA
:1054D0000CBF2D4B2D4B9847334D2D4B284603A920
:1054E00098476468002C3AD00A21022C2E481ED01E
:1054F0002A4B9847002009B0F0BD2E4C6368002B62
:1055000000F01F81022B20462B490CBF1E4B1F4B66
:1055100098470299274E294B3046491B98476468A3
:10552000002C00F024810A21022C3046E0D11A4BD5
:1055300098470020DFE71C4C6368002B00F01981BE
:10554000022B20461E490CBF0F4B104B9847164D9F
:105550000F4B284604A998476468002CC4D12868DA
:1055600003680A219B6898472046C4E7690600083B
:105570000050C347B10400080000C842A0860100E3
:10558000BC130020EC960008ED790008A97900080A
:105590002D7B000838940008F57A0008C17A0008CD
:1055A000D0080020D8080020D01300206095000803
:1055B0003C96000884110020F8950008F97800084E
:1055C0005C960008934C6368002B00F01081022B5E
:1055D000204691490CBF914B914B98478D4D914B73
:1055E000284606A998476468002C7FF47DAFB6E78B
:1055F0008D4B984701208D4B98478D4BDDED037AFD
:1056000093ED007AF4EE477AF1EE10FA40F09F80C5
:10561000884A9DED047AD2ED006AB4EE667AF1EE26
:1056200010FA00F0B880DDED056A9DED066A82494A
:10563000824EC3ED007A0120814B82ED007AC1EDEC
:10564000006A86ED006A98477E4E03980499059A91
:10565000069BB0477C4A7D4B1A6001232B707C4B24
:10566000002204201A707B4B984763687A48002B0D
:1056700000F0C380022B79490CBF684B684B9847F8
:1056800063687548002B00F009810A21022B0CBFCA
:10569000734B744B9847744C6368002B00F0F88090
:1056A000022B204671490CBF5C4B5D4B98476368E9
:1056B0006D48002B00F0A7800A21022B0CBF684B1D
:1056C000684B9847012016E7524C6368002B56D070
:1056D000022B204666490CBF504B514B9847DDEDDD
:1056E000057A9DED037A4B4D4E4B77EE277A08A94C
:1056F00061ED017A284698476368002B45D00A215E
:10570000022B28467FF4F4AE554B9847F2E620680A
:1057100058490368DB689847DEE63E4C636803B38C
:10572000022B204654490CBF3C4B3D4B9847394D0A
:10573000524B2846394698476468002C7FF4D4AE13
:105740000DE720684E490368DB689847E1E69DED68
:10575000047ADDED056A9DED066A364A3649374E14
:1057600067E7206844490368DB689847DFE73068EB
:10577000F6E6206843490368DB689847E7E6206857
:105780003B490368DB689847A9E7286803680A2152
:105790009B689847AEE62849DDED056A91ED006A01
:1057A000F4EE466AF1EE10FA7ED09DED066A234EC5
:1057B0003FE7306803680A219B68984765E63068D0
:1057C00031490368DB68984750E630682E49036822
:1057D000DB6898473BE630682B490368DB689847ED
:1057E00026E6206829490368DB68984710E62068A8
:1057F00009490368DB689847F0E6006817490368C1
:10580000DB6898473CE7006803680A219B68984773
:10581000012070E6D0130020C8960008ED7900083A
:10582000A97900082D7B00087D690008F90E0008A1
:1058300064000020680000206C0000207000002040
:10584000A5040008C162000865640008D4080020AF
:10585000D8080020D5670008BC13002084950008F4
:10586000F57A0008C17A00088C1100209495000890
:10587000A49600083C96000808960008F9780008ED
:10588000F89500085C96000838940008EC9600082B
:10589000206819490368DB68984708E700680368CF
:1058A0000A219B689847F6E6144E9DED066AD6EDF0
:1058B000005AB4EE656AF1EE10FA7FF4BAAE012038
:1058C0000F4C104DA0470499059A069B039800972A
:1058D000A8470D4A0D4B38461A600D4B98470120DA
:1058E000A0470C4B9847012005E620680A49036849
:1058F000DB689847DFE500BF949500087000002042
:10590000A5040008ED5F0008D55C0008D40800205D
:1059100091040008894C00086095000870B50020CB
:10592000264B98470024631C1B2B01D1012070BD1E
:10593000234D55F8341055F8332009681268914208
:105940000AD01A4601321A2A01DD1C46EBE755F847
:10595000320000688842F5D11A4E7368DBB1022B21
:10596000304619490CBF194B194B9847736855F8C5
:1059700034101448E3B1022B0CBF144B144B98475E
:10598000746810486CB10A21022C0CBF114B124BE9
:105990009847002070BD30680B490368DB68984762
:1059A000E4E7006803680A219B689847204670BDB9
:1059B00000680368DB689847E2E700BF9171000860
:1059C00074000020841100200C970008ED79000875
:1059D000A9790008F57A0008C17A000830B583B0CB
:1059E0000DF10700554B984770B19DF807300A2B11
:1059F0000CD0534A534C1068411CB1F5FE7F235420
:105A0000116001DB0023136003B030BD4C4D4D48E5
:105A10002968421800230229435453709370D370AD
:105A200059DD0468484802E001331B2B0FD050F8C1
:105A300033201268A242F7D1434A444802EBC30321
:105A400005395B68984708BB00232B60DCE7404CB6
:105A50006368002B39D0022B20463E490CBF3E4BD9
:105A60003E4B984763683A48002B60D0022B35497B
:105A70000CBF394B394B984763683548FBB10A2155
:105A8000022B0CBF364B374B9847DDE7364C63682B
:105A9000002B46D0022B204634490CBF2E4B2F4BF7
:105AA000984763683048002B35D0022B25490CBF3E
:105AB000294B2A4B984763682B48002BDFD100689D
:105AC00003680A219B689847BEE72068214903685C
:105AD000DB689847C6E7264C636883B1022B2046F3
